:100000000C9446000C9465000C9465000C946500FB
:100010000C9465000C9465000C9465000C946500CC
:100020000C9465000C9465000C9465000C946500BC
:100030000C9465000C9465000C9465000C946500AC
:100040000C9465000C9465000C9465000C9465009C
:100050000C9465000C9465000C9465000C9465008C
:100060000C9465000C9465000C9465000C9465007C
:100070000C9465000C9465000C9465000C9465006C
:100080000C9465000C9465000C94650011241FBE4F
:10009000CFEFD0E4DEBFCDBF11E0A0E0B1E0EAEEEB
:1000A000F1E000E00BBF02C007900D92A231B10752
:1000B000D9F711E0A2E1B1E001C01D92A531B1076D
:1000C000E1F70E94D8000C94F3000C940000CF9349
:1000D000DF9300D01F92CDB7DEB789837B836A831D
:1000E00089818A3031F48A819B81BC018DE00E9434
:1000F000670080EC90E0FC018081882F90E08072A6
:1001000099270097B1F386EC90E02981FC012083C8
:1001100080E090E00F900F900F90DF91CF910895C5
:10012000CF93DF93CDB7DEB78AE790E02AE730E0E0
:10013000F9012081206EFC012083DF91CF91089589
:10014000CF93DF93CDB7DEB788E790E0FC018081E5
:100150009181909314018093130180910E019091ED
:100160000F019C0136952795809113019091140100
:100170008217930720F081E08093120110C08091D4
:100180000E0190910F019C013695279580911301E6
:10019000909114018217930710F41092120185E2D6
:1001A00090E020911201FC012083DF91CF9108950E
:1001B000CF93DF93CDB7DEB781E290E0FC011082F0
:1001C00082E290E02FEFFC01208384E290E02FEFA9
:1001D000FC01208385E290E0FC0110820E949000E7
:0A01E0000E94A000FDCFF894FFCFAD
:1001EA0000000002000000006700000000004C024E
:0201FA001E00E5
:00000001FF
