:100000000C9446000C9465000C9465000C946500FB
:100010000C9465000C9465000C9465000C946500CC
:100020000C9465000C9465000C9465000C946500BC
:100030000C9465000C9465000C9465000C946500AC
:100040000C9465000C9465000C9465000C9465009C
:100050000C9465000C9465000C9465000C9465008C
:100060000C9465000C9465000C9465000C9465007C
:100070000C9465000C9465000C9465000C9465006C
:100080000C9465000C9465000C94650011241FBE4F
:10009000CFEFD0E4DEBFCDBF11E0A0E0B1E0E0E102
:1000A000F3E000E00BBF02C007900D92A231B10750
:1000B000D9F711E0A2E1B1E001C01D92A631B1076C
:1000C000E1F70E946B010C9486010C940000CF9321
:1000D000DF9300D01F92CDB7DEB789837B836A831D
:1000E00089818A3031F48A819B81BC018DE00E9434
:1000F000670080EC90E0FC018081882F90E08072A6
:1001000099270097B1F386EC90E02981FC012083C8
:1001100080E090E00F900F900F90DF91CF910895C5
:10012000CF93DF93CDB7DEB78AE790E02AE730E0E0
:10013000F9012081206EFC012083DF91CF91089589
:10014000CF93DF93CDB7DEB788E790E0FC018081E5
:100150009181909315018093140180910E019091EB
:100160000F01969587959695879596958795809397
:10017000130180911301882F90E0880F991F880F39
:10018000991F880F991F9C0180911401909115016E
:100190008217930720F08FEF8093120193C0809114
:1001A0001301282F30E0C901880F991F880F991F6C
:1001B000880F991F821B930B9C01809114019091D1
:1001C00015018217930720F08FE7809312017AC000
:1001D00080911301282F30E0C901880F991F820FE9
:1001E000931F880F991F9C01809114019091150114
:1001F0008217930720F08FE38093120163C08091F0
:100200001301282F30E0C901880F991F880F991F0B
:10021000820F931F9C018091140190911501821708
:10022000930720F08FE1809312014CC0809113015D
:10023000882F90E0880F991F880F991F9C0180914B
:100240001401909115018217930720F08FE080939D
:10025000120138C080911301282F30E0C901880FA6
:10026000991F820F931F9C01809114019091150199
:100270008217930720F087E08093120123C08091BA
:100280001301882F90E0880F991F9C018091140121
:10029000909115018217930720F083E0809312015B
:1002A00011C080911301282F30E0809114019091AA
:1002B00015018217930720F081E08093120102C09C
:1002C0001092120185E290E020911201FC0120833E
:1002D000DF91CF910895CF93DF93CDB7DEB781E261
:1002E00090E0FC01108282E290E02FEFFC0120837D
:1002F00084E290E02FEFFC01208385E290E0FC0196
:1003000010820E9490000E94A000FDCFF894FFCFC1
:1003100000000002000000006700000000004E0224
:020320001F00BC
:00000001FF
