:100000000C9446000C9465000C9465000C946500FB
:100010000C9465000C9465000C9465000C946500CC
:100020000C9465000C9465000C9465000C946500BC
:100030000C9465000C9465000C9465000C946500AC
:100040000C9465000C9465000C9465000C9465009C
:100050000C9465000C9465000C9465000C9465008C
:100060000C9465000C9465000C9465000C9465007C
:100070000C9465000C9465000C9465000C9465006C
:100080000C9465000C9465000C94650011241FBE4F
:10009000CFEFD0E4DEBFCDBF11E0A0E0B1E0E0EDF6
:1000A000F1E000E00BBF02C007900D92AE30B10747
:1000B000D9F711E0AEE0B1E001C01D92A231B10765
:1000C000E1F70E94CB000C94E6000C940000CF9363
:1000D000DF9300D01F92CDB7DEB789837B836A831D
:1000E00089818A3031F48A819B81BC018DE00E9434
:1000F000670080EC90E0FC018081882F90E08072A6
:1001000099270097B1F386EC90E02981FC012083C8
:1001100080E090E00F900F900F90DF91CF910895C5
:10012000CF93DF93CDB7DEB78AE790E02AE730E0E0
:10013000F9012081206EFC012083DF91CF91089589
:10014000CF93DF93CDB7DEB788E790E0FC018081E5
:1001500091819093100180930F0180910F019091F4
:10016000100180930E0180910F0190911001892F51
:10017000992783708093110185E290E020910E0110
:10018000FC0120838BE290E020911101FC0120838F
:10019000DF91CF910895CF93DF93CDB7DEB784E29F
:1001A00090E02FEFFC01208385E290E0FC011082BB
:1001B0008AE290E02FEFFC0120838BE290E0FC01CB
:1001C00010820E9490000E94A000FDCFF894FFCF03
:0E01D0000000000200000000670000000000B8
:00000001FF
