:100000000C9446000C9465000C9465000C946500FB
:100010000C9465000C9465000C9465000C946500CC
:100020000C9465000C9465000C9465000C946500BC
:100030000C9465000C9465000C9465000C946500AC
:100040000C9465000C9465000C9465000C9465009C
:100050000C9465000C9465000C9465000C9465008C
:100060000C9465000C9465000C9465000C9465007C
:100070000C9465000C9465000C9465000C9465006C
:100080000C9465000C9465000C94650011241FBE4F
:10009000CFEFD0E4DEBFCDBF11E0A0E0B1E0E4EFF0
:1000A000F2E000E00BBF02C007900D92A031B10753
:1000B000D9F711E0A0E1B1E001C01D92A431B10770
:1000C000E1F70E9466010C9478010C940000CF9334
:1000D000DF9300D01F92CDB7DEB789837B836A831D
:1000E00089818A3031F48A819B81BC018DE00E9434
:1000F000670080EC90E0FC018081882F90E08072A6
:1001000099270097B1F386EC90E02981FC012083C8
:1001100080E090E00F900F900F90DF91CF910895C5
:10012000CF93DF93CDB7DEB78AE790E02AE730E0E0
:10013000F9012081206EFC012083DF91CF91089589
:10014000CF93DF93CDB7DEB788E790E0FC018081E5
:100150009181909313018093120180910E018695F5
:10016000869586958093110180911101882F90E0EA
:10017000880F991F880F991F880F991F9C018091E4
:100180001201909113018217930720F08FEF809353
:10019000100193C080911101282F30E0C901880F10
:1001A000991F880F991F880F991F821B930B9C0121
:1001B00080911201909113018217930720F08FE72D
:1001C000809310017AC080911101282F30E0C9017D
:1001D000880F991F820F931F880F991F9C01809190
:1001E0001201909113018217930720F08FE38093FF
:1001F000100163C080911101282F30E0C901880FE0
:10020000991F880F991F820F931F9C0180911201E3
:10021000909113018217930720F08FE180931001D2
:100220004CC080911101882F90E0880F991F880F92
:10023000991F9C01809112019091130182179307DD
:1002400020F08FE08093100138C080911101282F99
:1002500030E0C901880F991F820F931F9C01809184
:100260001201909113018217930720F087E0809389
:10027000100123C080911101882F90E0880F991FF1
:100280009C0180911201909113018217930720F035
:1002900083E08093100111C080911101282F30E07C
:1002A00080911201909113018217930720F081E051
:1002B0008093100102C01092100185E290E020911D
:1002C0001001FC012083DF91CF910895CF93DF933C
:1002D000CDB7DEB784E290E02FEFFC01208385E20A
:1002E00090E0FC0110820E9490000E94A000FDCFCF
:0402F000F894FFCFB0
:1002F4000000000200000000670000000000070189
:00000001FF
